{
  "transactions": [
    {
      "hash": "0xb4db2763e4c909a70b4c570a3a9e9aef865bf6ba30b43ab9b3c14de9f277713b",
      "transactionType": "CALL",
      "contractName": "LinkToken",
      "contractAddress": "0x779877a7b0d9e8603169ddbd7836e478b4624789",
      "function": "transferAndCall(address,uint256,bytes)",
      "arguments": [
        "0x9DdfaCa8183c41ad55329BdeeD9F6A8d53168B1B",
        "3000000000000000000",
        "0x09865f9a56d168cf442085fd4942b8852d431919033d9944bf436bb8614ecd05"
      ],
      "transaction": {
        "from": "0xb8c1da36fe45a57479405e7ef5d954a7f06f6898",
        "to": "0x779877a7b0d9e8603169ddbd7836e478b4624789",
        "gas": "0x14cbb",
        "value": "0x0",
        "input": "0x4000aea00000000000000000000000009ddfaca8183c41ad55329bdeed9f6a8d53168b1b00000000000000000000000000000000000000000000000029a2241af62c00000000000000000000000000000000000000000000000000000000000000000060000000000000000000000000000000000000000000000000000000000000002009865f9a56d168cf442085fd4942b8852d431919033d9944bf436bb8614ecd05",
        "nonce": "0x44",
        "chainId": "0xaa36a7"
      },
      "additionalContracts": [],
      "isFixedGasLimit": false
    }
  ],
  "receipts": [
    {
      "status": "0x1",
      "cumulativeGasUsed": "0xca2a72",
      "logs": [
        {
          "address": "0x779877a7b0d9e8603169ddbd7836e478b4624789",
          "topics": [
            "0xddf252ad1be2c89b69c2b068fc378daa952ba7f163c4a11628f55a4df523b3ef",
            "0x000000000000000000000000b8c1da36fe45a57479405e7ef5d954a7f06f6898",
            "0x0000000000000000000000009ddfaca8183c41ad55329bdeed9f6a8d53168b1b"
          ],
          "data": "0x00000000000000000000000000000000000000000000000029a2241af62c0000",
          "blockHash": "0xfe517a559168b2b9eaf6dea0ba61bfc40df190ed333315f22e6a2ce4077289f5",
          "blockNumber": "0x64077b",
          "transactionHash": "0xb4db2763e4c909a70b4c570a3a9e9aef865bf6ba30b43ab9b3c14de9f277713b",
          "transactionIndex": "0x51",
          "logIndex": "0x9d",
          "removed": false
        },
        {
          "address": "0x779877a7b0d9e8603169ddbd7836e478b4624789",
          "topics": [
            "0xe19260aff97b920c7df27010903aeb9c8d2be5d310a2c67824cf3f15396e4c16",
            "0x000000000000000000000000b8c1da36fe45a57479405e7ef5d954a7f06f6898",
            "0x0000000000000000000000009ddfaca8183c41ad55329bdeed9f6a8d53168b1b"
          ],
          "data": "0x00000000000000000000000000000000000000000000000029a2241af62c00000000000000000000000000000000000000000000000000000000000000000040000000000000000000000000000000000000000000000000000000000000002009865f9a56d168cf442085fd4942b8852d431919033d9944bf436bb8614ecd05",
          "blockHash": "0xfe517a559168b2b9eaf6dea0ba61bfc40df190ed333315f22e6a2ce4077289f5",
          "blockNumber": "0x64077b",
          "transactionHash": "0xb4db2763e4c909a70b4c570a3a9e9aef865bf6ba30b43ab9b3c14de9f277713b",
          "transactionIndex": "0x51",
          "logIndex": "0x9e",
          "removed": false
        },
        {
          "address": "0x9ddfaca8183c41ad55329bdeed9f6a8d53168b1b",
          "topics": [
            "0x1ced9348ff549fceab2ac57cd3a9de38edaaab274b725ee82c23e8fc8c4eec7a",
            "0x09865f9a56d168cf442085fd4942b8852d431919033d9944bf436bb8614ecd05"
          ],
          "data": "0x000000000000000000000000000000000000000000000000b38502c122441a1f000000000000000000000000000000000000000000000000dd2726dc18701a1f",
          "blockHash": "0xfe517a559168b2b9eaf6dea0ba61bfc40df190ed333315f22e6a2ce4077289f5",
          "blockNumber": "0x64077b",
          "transactionHash": "0xb4db2763e4c909a70b4c570a3a9e9aef865bf6ba30b43ab9b3c14de9f277713b",
          "transactionIndex": "0x51",
          "logIndex": "0x9f",
          "removed": false
        }
      ],
      "logsBloom": "0x00000004000000000000000000000000000000000020000000000000020000000000000000200000000000000000000000000000000000000000000000000000000000000000800000000008000000000000000000000000000020000020000008000000000000002000000000000000000000000000002000000010000040000000008000000000000000010000800000000020000000000000000000000000000000000000000000000000010000000000000000000000000004000000000000000002000000000000000000000000000000000000000100000000000000000010000000000000800000000000000000000000000000000000000000000020",
      "type": "0x2",
      "transactionHash": "0xb4db2763e4c909a70b4c570a3a9e9aef865bf6ba30b43ab9b3c14de9f277713b",
      "transactionIndex": "0x51",
      "blockHash": "0xfe517a559168b2b9eaf6dea0ba61bfc40df190ed333315f22e6a2ce4077289f5",
      "blockNumber": "0x64077b",
      "gasUsed": "0xf0e5",
      "effectiveGasPrice": "0x2c757d135",
      "from": "0xb8c1da36fe45a57479405e7ef5d954a7f06f6898",
      "to": "0x779877a7b0d9e8603169ddbd7836e478b4624789",
      "contractAddress": null
    }
  ],
  "libraries": [],
  "pending": [],
  "returns": {},
  "timestamp": 1724411380,
  "chain": 11155111,
  "commit": "d7cfb27"
}