{
  "transactions": [
    {
      "hash": "0xee90faeb6f9d4728fa4e1b35d6ad4266c8e78cb5406fe53f91588a810c0e17c1",
      "transactionType": "CALL",
      "contractName": "LinkToken",
      "contractAddress": "0x779877a7b0d9e8603169ddbd7836e478b4624789",
      "function": "transferAndCall(address,uint256,bytes)",
      "arguments": [
        "0x9DdfaCa8183c41ad55329BdeeD9F6A8d53168B1B",
        "3000000000000000000",
        "0xe1a2a685b633e27842ecb3ceef654e3f260d3963854f0238bda48270cbf62e1d"
      ],
      "transaction": {
        "from": "0xb8c1da36fe45a57479405e7ef5d954a7f06f6898",
        "to": "0x779877a7b0d9e8603169ddbd7836e478b4624789",
        "gas": "0x14cbb",
        "value": "0x0",
        "input": "0x4000aea00000000000000000000000009ddfaca8183c41ad55329bdeed9f6a8d53168b1b00000000000000000000000000000000000000000000000029a2241af62c000000000000000000000000000000000000000000000000000000000000000000600000000000000000000000000000000000000000000000000000000000000020e1a2a685b633e27842ecb3ceef654e3f260d3963854f0238bda48270cbf62e1d",
        "nonce": "0x45",
        "chainId": "0xaa36a7"
      },
      "additionalContracts": [],
      "isFixedGasLimit": false
    }
  ],
  "receipts": [
    {
      "status": "0x1",
      "cumulativeGasUsed": "0x6787a1",
      "logs": [
        {
          "address": "0x779877a7b0d9e8603169ddbd7836e478b4624789",
          "topics": [
            "0xddf252ad1be2c89b69c2b068fc378daa952ba7f163c4a11628f55a4df523b3ef",
            "0x000000000000000000000000b8c1da36fe45a57479405e7ef5d954a7f06f6898",
            "0x0000000000000000000000009ddfaca8183c41ad55329bdeed9f6a8d53168b1b"
          ],
          "data": "0x00000000000000000000000000000000000000000000000029a2241af62c0000",
          "blockHash": "0xaad876cc3ff05791281fe9f75369639d7f11bb30b96f19dab1d8dc1853c764d8",
          "blockNumber": "0x640785",
          "transactionHash": "0xee90faeb6f9d4728fa4e1b35d6ad4266c8e78cb5406fe53f91588a810c0e17c1",
          "transactionIndex": "0x1c",
          "logIndex": "0x55",
          "removed": false
        },
        {
          "address": "0x779877a7b0d9e8603169ddbd7836e478b4624789",
          "topics": [
            "0xe19260aff97b920c7df27010903aeb9c8d2be5d310a2c67824cf3f15396e4c16",
            "0x000000000000000000000000b8c1da36fe45a57479405e7ef5d954a7f06f6898",
            "0x0000000000000000000000009ddfaca8183c41ad55329bdeed9f6a8d53168b1b"
          ],
          "data": "0x00000000000000000000000000000000000000000000000029a2241af62c000000000000000000000000000000000000000000000000000000000000000000400000000000000000000000000000000000000000000000000000000000000020e1a2a685b633e27842ecb3ceef654e3f260d3963854f0238bda48270cbf62e1d",
          "blockHash": "0xaad876cc3ff05791281fe9f75369639d7f11bb30b96f19dab1d8dc1853c764d8",
          "blockNumber": "0x640785",
          "transactionHash": "0xee90faeb6f9d4728fa4e1b35d6ad4266c8e78cb5406fe53f91588a810c0e17c1",
          "transactionIndex": "0x1c",
          "logIndex": "0x56",
          "removed": false
        },
        {
          "address": "0x9ddfaca8183c41ad55329bdeed9f6a8d53168b1b",
          "topics": [
            "0x1ced9348ff549fceab2ac57cd3a9de38edaaab274b725ee82c23e8fc8c4eec7a",
            "0xe1a2a685b633e27842ecb3ceef654e3f260d3963854f0238bda48270cbf62e1d"
          ],
          "data": "0x000000000000000000000000000000000000000000000000b469471f80140000000000000000000000000000000000000000000000000000de0b6b3a76400000",
          "blockHash": "0xaad876cc3ff05791281fe9f75369639d7f11bb30b96f19dab1d8dc1853c764d8",
          "blockNumber": "0x640785",
          "transactionHash": "0xee90faeb6f9d4728fa4e1b35d6ad4266c8e78cb5406fe53f91588a810c0e17c1",
          "transactionIndex": "0x1c",
          "logIndex": "0x57",
          "removed": false
        }
      ],
      "logsBloom": "0x00000004000000000000000000000000000000000020000000000000020000000000000000000000000000000000000000000100000000000000000000000000000000000000000000000008000000000000000000000000000020000020000008000000000000002000000000000000000000000000000000800010000040000000008000000000000000010000800000000020000000000000000000000000000800000000000000000000010000000000000000000000000004000000000000000002000000000000000000000000000000000000000100000000000000000010000000000000800000000000000000000000000000000000000000000020",
      "type": "0x2",
      "transactionHash": "0xee90faeb6f9d4728fa4e1b35d6ad4266c8e78cb5406fe53f91588a810c0e17c1",
      "transactionIndex": "0x1c",
      "blockHash": "0xaad876cc3ff05791281fe9f75369639d7f11bb30b96f19dab1d8dc1853c764d8",
      "blockNumber": "0x640785",
      "gasUsed": "0xf0e5",
      "effectiveGasPrice": "0x2b7d1fb4f",
      "from": "0xb8c1da36fe45a57479405e7ef5d954a7f06f6898",
      "to": "0x779877a7b0d9e8603169ddbd7836e478b4624789",
      "contractAddress": null
    }
  ],
  "libraries": [],
  "pending": [],
  "returns": {},
  "timestamp": 1724411498,
  "chain": 11155111,
  "commit": "d7cfb27"
}