{
  "transactions": [
    {
      "hash": "0x3ded4400bfc5e4bcb8ade938c55ff94306ffaf13e988b4c05ddf4d2202db5101",
      "transactionType": "CALL",
      "contractName": "LinkToken",
      "contractAddress": "0x779877a7b0d9e8603169ddbd7836e478b4624789",
      "function": "transferAndCall(address,uint256,bytes)",
      "arguments": [
        "0x9DdfaCa8183c41ad55329BdeeD9F6A8d53168B1B",
        "3000000000000000000",
        "0x09865f9a56d168cf442085fd4942b8852d431919033d9944bf436bb8614ecd05"
      ],
      "transaction": {
        "from": "0xb8c1da36fe45a57479405e7ef5d954a7f06f6898",
        "to": "0x779877a7b0d9e8603169ddbd7836e478b4624789",
        "gas": "0x14cbb",
        "value": "0x0",
        "input": "0x4000aea00000000000000000000000009ddfaca8183c41ad55329bdeed9f6a8d53168b1b00000000000000000000000000000000000000000000000029a2241af62c00000000000000000000000000000000000000000000000000000000000000000060000000000000000000000000000000000000000000000000000000000000002009865f9a56d168cf442085fd4942b8852d431919033d9944bf436bb8614ecd05",
        "nonce": "0x43",
        "chainId": "0xaa36a7"
      },
      "additionalContracts": [],
      "isFixedGasLimit": false
    }
  ],
  "receipts": [
    {
      "status": "0x1",
      "cumulativeGasUsed": "0x942a00",
      "logs": [
        {
          "address": "0x779877a7b0d9e8603169ddbd7836e478b4624789",
          "topics": [
            "0xddf252ad1be2c89b69c2b068fc378daa952ba7f163c4a11628f55a4df523b3ef",
            "0x000000000000000000000000b8c1da36fe45a57479405e7ef5d954a7f06f6898",
            "0x0000000000000000000000009ddfaca8183c41ad55329bdeed9f6a8d53168b1b"
          ],
          "data": "0x00000000000000000000000000000000000000000000000029a2241af62c0000",
          "blockHash": "0xc3340fbb3ca192d779b49650393521a82e612aa7fb763a9e6420a00adc0c40bb",
          "blockNumber": "0x640750",
          "transactionHash": "0x3ded4400bfc5e4bcb8ade938c55ff94306ffaf13e988b4c05ddf4d2202db5101",
          "transactionIndex": "0x34",
          "logIndex": "0x56",
          "removed": false
        },
        {
          "address": "0x779877a7b0d9e8603169ddbd7836e478b4624789",
          "topics": [
            "0xe19260aff97b920c7df27010903aeb9c8d2be5d310a2c67824cf3f15396e4c16",
            "0x000000000000000000000000b8c1da36fe45a57479405e7ef5d954a7f06f6898",
            "0x0000000000000000000000009ddfaca8183c41ad55329bdeed9f6a8d53168b1b"
          ],
          "data": "0x00000000000000000000000000000000000000000000000029a2241af62c00000000000000000000000000000000000000000000000000000000000000000040000000000000000000000000000000000000000000000000000000000000002009865f9a56d168cf442085fd4942b8852d431919033d9944bf436bb8614ecd05",
          "blockHash": "0xc3340fbb3ca192d779b49650393521a82e612aa7fb763a9e6420a00adc0c40bb",
          "blockNumber": "0x640750",
          "transactionHash": "0x3ded4400bfc5e4bcb8ade938c55ff94306ffaf13e988b4c05ddf4d2202db5101",
          "transactionIndex": "0x34",
          "logIndex": "0x57",
          "removed": false
        },
        {
          "address": "0x9ddfaca8183c41ad55329bdeed9f6a8d53168b1b",
          "topics": [
            "0x1ced9348ff549fceab2ac57cd3a9de38edaaab274b725ee82c23e8fc8c4eec7a",
            "0x09865f9a56d168cf442085fd4942b8852d431919033d9944bf436bb8614ecd05"
          ],
          "data": "0x00000000000000000000000000000000000000000000000089e2dea62c181a1f000000000000000000000000000000000000000000000000b38502c122441a1f",
          "blockHash": "0xc3340fbb3ca192d779b49650393521a82e612aa7fb763a9e6420a00adc0c40bb",
          "blockNumber": "0x640750",
          "transactionHash": "0x3ded4400bfc5e4bcb8ade938c55ff94306ffaf13e988b4c05ddf4d2202db5101",
          "transactionIndex": "0x34",
          "logIndex": "0x58",
          "removed": false
        }
      ],
      "logsBloom": "0x00000004000000000000000000000000000000000020000000000000020000000000000000200000000000000000000000000000000000000000000000000000000000000000800000000008000000000000000000000000000020000020000008000000000000002000000000000000000000000000002000000010000040000000008000000000000000010000800000000020000000000000000000000000000000000000000000000000010000000000000000000000000004000000000000000002000000000000000000000000000000000000000100000000000000000010000000000000800000000000000000000000000000000000000000000020",
      "type": "0x2",
      "transactionHash": "0x3ded4400bfc5e4bcb8ade938c55ff94306ffaf13e988b4c05ddf4d2202db5101",
      "transactionIndex": "0x34",
      "blockHash": "0xc3340fbb3ca192d779b49650393521a82e612aa7fb763a9e6420a00adc0c40bb",
      "blockNumber": "0x640750",
      "gasUsed": "0xf0e5",
      "effectiveGasPrice": "0x21f45f36e",
      "from": "0xb8c1da36fe45a57479405e7ef5d954a7f06f6898",
      "to": "0x779877a7b0d9e8603169ddbd7836e478b4624789",
      "contractAddress": null
    }
  ],
  "libraries": [],
  "pending": [],
  "returns": {},
  "timestamp": 1724410853,
  "chain": 11155111,
  "commit": "d7cfb27"
}